:100000006F00604400000000C4040000C004000051
:1000100000000000000000000000000000000000E0
:1000200000000000000000000000000000000000D0
:10003000C004000000000000C00400000000000038
:10004000C0040000C0040000C0040000C0040000A0
:10005000C0040000C0040000C0040000C004000090
:10006000C0040000C0040000C0040000C004000080
:10007000C0040000C0040000440800006C09000037
:10008000C0040000C0040000C0040000C004000060
:10009000C0040000C0040000C00400000000000014
:1000A000634E050263C305042E86AA857D5515C2DD
:1000B00085466378B6006356C00006068606E36C84
:1000C000B6FE014563E4C500918D558D858205829C
:1000D000F5FA82808682C93F2E8582823305A04050
:1000E0006347B000B305B040C1B7B305B0408682E6
:1000F000653F3305A0408282868263C7050063495D
:1001000005005D372E858282B305B040E35B05FEB6
:100110003305A040513F3305B040828200003111C9
:1001200026C406C822C6AE84AA87B28599C60143F2
:1001300063D79600B684054319A00143A68633848D
:10014000964063530400014422863A853EC21AC099
:10015000BD23024392472A87B30685000146B38533
:10016000C4406342B00463D304008144B385960065
:100170003385E540630403026372B7029307A0026C
:10018000A38FF5FE9386F5FF637AD700238FF5FEE4
:100190009386E5FF6374D700A38EF5FEC240324418
:1001A000A24451018280B385C70003C50500B38511
:1001B000C60005062380A5005DB7011106CE22CC3E
:1001C00026CA02C02A836357050089E685473303A0
:1001D000A0403EC0058A1304100619C2130410047F
:1001E000BA8459141A853AC81AC22EC61AC4DD3503
:1001F000A5472243B24542479376F50F63E1A70630
:100200009386060393F6F60F938714002380D40099
:100210001A853AC83EC62EC4413D9246A245B24711
:1002200042472A8363FBB602824699C69306D002F0
:100230002380D700938724003385E7409356F50148
:10024000AA962380070085860146FD17634BD600DA
:10025000F2406244D24405618280BE8461B7A296B6
:1002600055B7B305C70083C2070003C305000506E1
:100270002380550023806700C9BF23930180B717EF
:100280000240984BB7062000558F98CB984BB70685
:10029000E0FFFD16758F98CBB757004003D7474056
:1002A000C166938606FC758F136787012392E7402A
:1002B00071771107239EE740B706004037E700E05B
:1002C0002320D710B70600802320D710A3820180F7
:1002D00003D70740856693860680558F2390E740B5
:1002E00003D70740136717002390E7408280B717B2
:1002F0000240984FB70620001367170198CFD84FD8
:10030000558FD8CFB71701409843FD769386F60FE7
:100310001377F7F098C398431367070D98C3984372
:10032000758F98C398438566938606D0558F98C37A
:10033000B7070140D843B706C0FFF516758FD8C37D
:10034000D843D8C31DBFB70700E09387470F9C432E
:100350008280011122CC06CE26CA2AC002C82E8471
:10036000F9E1B70700E09387470F9C4389C793F7EC
:10037000070891E3C93FF24022856244D2440561F7
:100380008280B30694401D4636876353D6001D47CE
:1003900037760200130616108325030013F50508AF
:1003A0003DED81C91AC63AC436C2713F3243224775
:1003B000924693A63600014699E21306D7FF82477C
:1003C000938534000808BE951AC43AC211264246E5
:1003D0008247B70600E0224312479386860F90C2F9
:1003E0008D453386970081468342060085069387B4
:1003F000060133852700230055006305D700050655
:10040000E394B6FE9306470093E606F82308D1006E
:10041000C246BA942320D300E3C584F6A9BF7D1653
:1004200025FE268489BF370300E081441303430F70
:10043000E5B7511122C206C42E84213FA240228575
:10044000124431018280970100209381A13B1381E6
:10045000010013050008731005308D4617050000D4
:10046000130545BA558D7310553017050020130537
:1004700065B99385818001466356B50010C11105A9
:10048000E34EB5FE1705000013050556970500203D
:10049000938545B7170600201306C6B66388C500C6
:1004A000144194C111059105E39AC5FEB7F700E028
:1004B000054798C39307E074739017347300203096
:1004C000029001A0371702401C47B7068000D58F65
:1004D0001CC7AA8703C7070001E73385A7408280AE
:1004E0008507CDBF130141FAA2CAA6C886CC2AC08F
:1004F0002EC23284B68402CA8347040093061400D5
:10050000A30FF10081EBE64056445245C644130167
:10051000C105828036C6130750026380E702124687
:10052000824785451305F1018297B24626C4368479
:10053000D247A244AA973ECAC1B703471400130684
:10054000000393060003A30FE10032C693072400C3
:100550006312D7083E8481468147A54511A81397A9
:1005600027000504BA970347F4FF8607B29785462C
:10057000130607FD1375F60FE3F3A5FE99C2A30F4B
:10058000E1003EC8E14663D3F60036C81306C00654
:1005900081466318C7000347040085460504A30F7E
:1005A000E1000346F101130740066305E6066367B1
:1005B000C702930780056300F60A93073006630DB0
:1005C000F60A31D21246824785451305F10182971A
:1005D00026C4B9BF9306000236C6ADBF1307500745
:1005E000630AE602130780076307E606130730076E
:1005F000E31AE6FC3ECC9387440084403EC4268543
:10060000C93DE247AA856356F008C246324638180B
:1006100026851DA0938744003EC495C61306B6F8F0
:1006200018109336160088400146A9457936C2460F
:1006300032463818AA850810DD341246AA852818D3
:1006400082478297F5B59307500718108546E30C4B
:10065000F6FC8146C9BF8840130686FA938744009A
:100660001810854613361600C1453EC4B936C24639
:100670003246AA853818C1B7938744003EC49C40CF
:10068000C2463246A30FF100381885451305F10123
:1006900065B7124626856DB71301C1FD32CA2A8699
:1006A0002EC836CC814514081305204306C63ACE21
:1006B0003ED036C0053DB2401301410282802A96E9
:1006C000AA876393C70082802380B7008507D5BFC0
:1006D00081476313F60082803387F5008346070065
:1006E0003307F50085072300D700E5B7B7170240A9
:1006F0003707080123A207001307170898C3854688
:100700003727024014C337079F0098C737170240A6
:100710001C4393966700E3DD06FE5C43B716024078
:10072000F19B93E727005CC32147DC42B18BE39E3A
:10073000E7FEB70700E09387870F23A00700B707FE
:1007400000E09387470F1307000898C38280411188
:1007500006C622C4613F37040020513EB7F700E0CF
:100760009847B7975B00938707D83E97B7F600E0A6
:100770009C46998FE3CE07FE83C75180F5FFB707EC
:10078000002009472382E700B757004023202400B8
:100790001307007D93870740FD5503D68701098A1B
:1007A0001DCA7D17E31BB7FE993629A8835747005A
:1007B00093E707702312F7008547A382F18083C770
:1007C0005180F5FF034611008345010005651305BF
:1007D000459DD93561B703D70700370603000506E5
:1007E000136707402390E70003D70700136707103C
:1007F0002390E70037570040130707408355470110
:1008000083578701C207CD8FF18FE399C7FECD478C
:100810002318F70037060300375700409305007D83
:100820001307074009067D55035347018357870186
:10083000C207B3E76700F18FE38AC7F6FD15E395BA
:10084000A5FE9DB711113AC23757004036C41307B1
:100850000740B706002032C63EC083C74600035695
:1008600047012EC81ACC931506012ACA137606082A
:1008700093F7F70FC18115C61386F7FF1376F60FAE
:1008800085C337050020832705001383170083C71E
:1008900007002320650093F7F70F2318F7003DC6E4
:1008A000B28793F50504B9C51387F7FF1377F70FE0
:1008B000A9C38547631CF700B757004003D607401C
:1008C000C1659385F5BF6D8E2390C740B757004033
:1008D000370500208325050003D60741938707408D
:1008E000138315001376F60F232065002380C500BF
:1008F00029CFBA872382F60062435245C245324669
:10090000A246124782477101730020308357470087
:1009100041661306F68FF18F2312F70037060700A2
:10092000A3820180130646080355470183578701B8
:10093000C207C98FF18FE399C7FE8357070093E77A
:1009400007202310F7008147A9BF03D64700C165E0
:100950009385F58F6D8E2392C700A382018003D605
:100960000700136606202390C70061B7130181FDBD
:100970003EC0B75700403AC203D7474136C48966E4
:10098000938606F0758F06D216D01ACE1ECC2ACAD0
:100990002EC832C605CF2393E18003D74741F976AD
:1009A0009386F60F758F93870740239AE700F130FF
:1009B000925082527243E2435245C2453246A246A9
:1009C0001247824713018102730020302393018074
:1009D000C5B70000676F743A202532782025327839
:0409E000200A0000E9
:00000001FF
