:100000006F00403900000000120400000E040000E0
:1000100000000000000000000000000000000000E0
:1000200000000000000000000000000000000000D0
:100030000E040000000000000E040000000000009C
:100040000E0400000E0400000E0400000E04000068
:100050002C0800000E0400000E0400000E04000036
:100060000E0400000E0400000E0400000E04000048
:100070000E0400000E0400009E0800004A0A000062
:100080000E0400000E0400000E0400000E04000028
:100090000E0400000E0400000E040000000000002A
:1000A000634E050263C305042E86AA857D5515C2DD
:1000B00085466378B6006356C00006068606E36C84
:1000C000B6FE014563E4C500918D558D858205829C
:1000D000F5FA82808682C93F2E8582823305A04050
:1000E0006347B000B305B040C1B7B305B0408682E6
:1000F000653F3305A0408282868263C7050063495D
:1001000005005D372E858282B305B040E35B05FEB6
:100110003305A040513F3305B040828200003111C9
:1001200026C406C822C6AE84AA87B28599C60143F2
:1001300063D79600B684054319A00143A68633848D
:10014000964063530400014422863A853EC21AC099
:100150007529024392472A87B30685000146B38575
:10016000C4406342B00463D304008144B385960065
:100170003385E540630403026372B7029307A0026C
:10018000A38FF5FE9386F5FF637AD700238FF5FEE4
:100190009386E5FF6374D700A38EF5FEC240324418
:1001A000A24451018280B385C70003C50500B38511
:1001B000C60005062380A5005DB7011106CE22CC3E
:1001C00026CA02C02A836357050089E685473303A0
:1001D000A0403EC0058A1304100619C2130410047F
:1001E000BA8459141A853AC81AC22EC61AC4DD3503
:1001F000A5472243B24542479376F50F63E1A70630
:100200009386060393F6F60F938714002380D40099
:100210001A853AC83EC62EC4413D9246A245B24711
:1002200042472A8363FBB602824699C69306D002F0
:100230002380D700938724003385E7409356F50148
:10024000AA962380070085860146FD17634BD600DA
:10025000F2406244D24405618280BE8461B7A296B6
:1002600055B7B305C70083C2070003C305000506E1
:100270002380550023806700C9BF8280B707002014
:1002800093874700AA9723800700A38301802383D5
:1002900001808280B70700E09387470F9C438280EC
:1002A000011122CC06CE26CA2AC002C82E84F9E14A
:1002B000B70700E09387470F9C4389C793F7070868
:1002C00091E3C93FF24022856244D24405618280B5
:1002D000B30694401D4636876353D6001D473776D4
:1002E0000200130616108325030013F505083DEDE3
:1002F00081C91AC63AC436C2713F32432247924678
:1003000093A63600014699E21306D7FF82479385EC
:1003100034000808BE951AC43AC2112642468247E4
:10032000B70600E0224312479386860F90C28D45A0
:10033000338697008146834206008506938706012F
:1003400033852700230055006305D7000506E39495
:10035000B6FE9306470093E606F82308D100C2468E
:10036000BA942320D300E3C584F6A9BF7D1625FEE9
:10037000268489BF370300E081441303430FE5B7A8
:10038000511122C206C42E84213FA240228512446C
:1003900031018280970100209381C14613810100C1
:1003A00013050008731005308D461705000013056E
:1003B00065C5558D7310553017050020130585C48C
:1003C0009385C18301466356B50010C11105E34E04
:1003D000B5FE170500001305E56F9705002093850E
:1003E00065C2170600201306E6C16388C5001441E4
:1003F00094C111059105E39AC5FEB7F700E00547E2
:1004000098C393076067739017347300203002908D
:1004100001A0371702401C47B7068000D58F1CC7C4
:10042000AA8703C7070001E73385A74082808507B5
:10043000CDBF130141FAA2CAA6C886CC2AC02EC2DB
:100440003284B68402CA8347040093061400A30FC3
:10045000F10081EBE64056445245C6441301C10504
:10046000828036C6130750026380E7021246824735
:1004700085451305F1018297B24626C43684D247DA
:10048000A244AA973ECAC1B703471400130600034B
:1004900093060003A30FE10032C693072400631202
:1004A000D7083E8481468147A54511A813972700A8
:1004B0000504BA970347F4FF8607B29785461306EB
:1004C00007FD1375F60FE3F3A5FE99C2A30FE10034
:1004D0003EC8E14663D3F60036C81306C00681461F
:1004E0006318C7000347040085460504A30FE10015
:1004F0000346F101130740066305E6066367C7027A
:10050000930780056300F60A93073006630DF60A29
:1005100031D21246824785451305F101829726C4E0
:10052000B9BF9306000236C6ADBF13075007630A72
:10053000E602130780076307E60613073007E31A8E
:10054000E6FC3ECC9387440084403EC42685C93DEA
:10055000E247AA856356F008C24632463818268517
:100560001DA0938744003EC495C61306B6F8181024
:100570009336160088400146A9458131C24632466D
:100580003818AA850810613E1246AA8528188247A5
:100590008297F5B59307500718108546E30CF6FCD3
:1005A0008146C9BF8840130686FA93874400181015
:1005B000854613361600C1453EC40131C246324657
:1005C000AA853818C1B7938744003EC49C40C246F0
:1005D0003246A30FF100381885451305F10165B7C0
:1005E000124626856DB71301C1FD32CA2A862EC870
:1005F00036CC814514081305003806C63ACE3ED0E5
:1006000036C0053DB2401301410282802A96AA8776
:100610006393C70082802380B7008507D5BF8147D9
:100620006313F60082803387F500834607003307A3
:10063000F50085072300D700E5B7B7170240370755
:10064000080023A207001307170898C337270240A2
:100650002320070037079F0098C7B70700E093875C
:10066000870F23A00700B70700E09387470F130702
:10067000000898C38280511122C226C006C4753F6B
:10068000371702401C4FB71601409386068093E748
:1006900057031CCF90427D751305F50F1376F6F0C6
:1006A0001366060490C29042B7170140C945698E8F
:1006B0001366064090C294433706F1FF7D16F18E13
:1006C00037060400D18E94C313060020B7060140FC
:1006D00090C6938606408CC2CCC637061000B7E69B
:1006E00000E023A0C6109043370400209304440088
:1006F0001376F6F01366060D90C39043698E056578
:10070000130505D0498E90C3B707002005462394F2
:10071000C7009387870013064400D0C33706002024
:100720001306060090C7130620202396C700130661
:10073000A02723A80700D0CF2381070023AA070002
:10074000239C07001306C02790D32382070223A40B
:10075000070223A60702238807025C4F3706200002
:10076000D18F5CCF1C4BD18F1CCB1C4B3706E0FFCD
:100770007D16F18F1CCBB757004003D70740216689
:10078000518F2390E74003D7074037060080460784
:1007900045832390E74003D747401367C700239260
:1007A000E74003D74740136707702392E7403707B6
:1007B000004023A0E61013070002238FE64023A089
:1007C000C610A38FE64061772107239EE74023945C
:1007D000B7402396074003D70740136717002390BD
:1007E000E74003D70740136707402390E740B7F778
:1007F00000E09447B79704009387073EBE9637F60C
:1008000000E01C46958FE3CE07FE83C77180056527
:10081000130505AC2302F40083C76180A380F400B4
:100820008345440003C614007D3BD1B751113EC03F
:10083000B707014093870740DC4B36C43AC2898B27
:100840009DC7B7170140938707809C47918BA1E70D
:1008500083C771808507E207E187A383F180B7072B
:10086000014093870740D84B13672700D8CBB707C1
:10087000014093870740D84B418B01CB85462383AA
:10088000D180D84B13670701D8CBA24612478247C5
:1008900031017300203083C77180FD176DBF7971FE
:1008A0003EC0B75700403AC203D74741938707403D
:1008B00083D7870126CC06D69314070116D41AD203
:1008C0001ED022CE2ACA2EC832C636C4098BC18099
:1008D00015C337070020130787008546C207C18369
:1008E0002300D700834617009D83858B2301D70003
:1008F0002309F70293F7040485CBB70700209387F9
:10090000870003C7070069C7375700401307074030
:100910000357070123800700A38807021377F70F07
:10092000A380E7002381E70093F70408B1C73704E9
:1009300000209307840003C7270303C52700A3886B
:100940000702B7570040938707401304840079CB10
:10095000034784016376E50E18482A97034707008A
:100960001377F70F2398E7005C5491C3829783476E
:10097000240085072301F400C18885CCB7570040C7
:1009800003D70740C1669386F6DF758F2390E74053
:10099000B70700209387870003C727034DC79857E1
:1009A00009CB03C5170083C52700898D93F5F50F83
:1009B00002977244B250A25212538253E2445245FB
:1009C000C2453246A2461247824745617300203035
:1009D00083C627030547A388E70203C7270095C6F8
:1009E00083C69701E372D7F483C6070395FEB75613
:1009F000004003D60641D44BBA961376F60F2380F7
:100A0000C60005072381E70005B783C6D700E37D4D
:100A1000D7F083C6470289FAB756004003D606418D
:100A20009447D9BF0347C400637CE50058402A9728
:100A3000034707001377F70F2398E7001C5035B7DB
:100A40002398070015BFD84FA1BF41113EC0B7572B
:100A5000004036C483D647413AC232C613970601D6
:100A600093F60610418399CA83D64741416613061F
:100A7000F6EFF18E93870740239AD70093770720EC
:100A800099CBB757004083D6474141661306F6DF3E
:100A9000F18E239AD7401377074019CBB757004000
:100AA00003D74741C1669386F6BF758F239AE74007
:100AB0003246A246124782474101730020300000AF
:100AC000676F743A2025327820253278200A00009A
:00000001FF
